:1000000036C1000051C100004FC100000C94DD1545
:100010004BC1000049C1000047C1000045C10000BC
:1000200043C1000041C100000C94A51A0C94721B3E
:100030000C948D1439C1000037C1000035C1000097
:1000400033C1000031C100002FC100002DC10000EC
:100050002BC100000C94041527C1000025C100002D
:1000600023C1000021C100001FC100001DC100000C
:100070001BC1000019C1000017C1000015C100001C
:1000800013C1000011C100000FC100000DC100002C
:100090000BC1000009C1000007C1000005C100003C
:1000A00003C1000001C10000FFC000003A0035009C
:1000B0001E001F002000210022003B002B00140026
:1000C0001A000800150017003C0029000400160063
:1000D000070009000A003D00E1001D001B000600AA
:1000E000190005003E00E000E300E20035044C008A
:1000F0002C002E002D0027002600250024002300C0
:1001000030002F00130012000C0018001C00280003
:10011000340033000F000E000D000B00E50031002D
:10012000380037003600100011004F005200510017
:10013000500021522A002800010001003A003B0033
:100140003C003D003E00010001000000007C010079
:10015000010001000100010020782378257827782C
:100160000100010001002178247826782878010018
:100170000100010001000100010001000100450033
:10018000440043004200410040003F0001000100E4
:100190000100010001000100010001000100010057
:1001A0000100010001000100010001000100010047
:1001B0000100010001000100010001000100010037
:1001C000010001001E03720075006E006E006500E4
:1001D000720033003600380030002000350078000F
:1001E000370000000C034F006D006B0062006400DC
:1001F00000000403090409022200010100A0FA0919
:100200000400000103010100092111010001224441
:100210000007058103080001120100020000000828
:10022000EDFE000005000102000105010906A10123
:10023000050719E029E715002501950875018102D8
:100240009501750881010507190029FF150026FF92
:100250000095067508810005081901290515002576
:1002600001950575019102950175039101C0112455
:100270001FBECFEFDAE0DEBFCDBF11E0A0E0B1E0FE
:10028000E8EDFBE302C005900D92A833B107D9F762
:1002900022E0A8E3B1E001C01D92A433B207E1F768
:1002A0000E949F110C94AB1DABCE8230B8F46A3023
:1002B000A8F4473098F450E097E0699F400D511D35
:1002C0001124FA0196E4899FE00DF11D1124EE0F2F
:1002D000FF1FE455FF4F85919491089581E090E0D0
:1002E0000895E3CF089581E00895FDCF0895FBCFF1
:1002F000089581E00895F7CF0895F5CF0895FDCFD3
:10030000089508950895FDCF089508950895A6E0ED
:10031000B0E0EDE8F1E00C94321D49835A839E83EE
:1003200030913F0189819A81311117C03E81332379
:1003300089F0222379F01BD5182F682F89819A81A3
:10034000F5D469817A81812F0E94900C2696E3E092
:100350000C944E1DFCD4182FF4CF09D569817A81F5
:10036000F3CFFC01262F408151816281738184810A
:100370009581CDCFCF93DF93EC0161E0F2DFBE0139
:10038000B4DF882349F061E0CE01EBDFBE01AFDFCF
:100390008170DF91CF91089580E0FACF0F931F9382
:1003A000CF93DF93EC0160E0DCDF8C01BE01AADFBC
:1003B000BE01C801A8DFDF91CF911F910F91089571
:1003C00021E030E0A90102C0440F551F8A95E2F7F1
:1003D000CA01E5C3CF93C82F81E090E00C2E02C084
:1003E000880F991F0A94E2F70E94C20A8C2FE8DF57
:1003F000CF91089581E00895FDCF0895FBCF089532
:10040000CF93C82F84D38C2FF7DF8C2FF7DF2FEFFC
:1004100084E39CE0215080409040E1F700C0000060
:10042000CF91089581E0ECDF0C94281580E0E8DF9F
:100430000C9439150F931F93CF93DF938C0161E0D8
:1004400090DFEC01B80157DF811106C080E0DF9139
:10045000CF911F910F910895B801CE0150DF8823ED
:10046000A9F3B801CE010E942513882379F3B801BE
:10047000CE010E94EE11882349F3B801CE010E94FB
:10048000C711882319F3B801CE010E94CB0D882330
:10049000E9F2F8018581882361F0C330FCE7DF07CA
:1004A000D9F050F4C115ECE7DE07A1F0C130DC470C
:1004B000A9F0C8011EDFCBCFCB358CE7D80799F068
:1004C000CC35ECE7DE0761F0CA35DC4791F70E94D6
:1004D0008B0AEFCFA7DFBACF0E94BA0AA7DFB6CF49
:1004E0000E94830AE6CF0E948D0AE3CF0EDF0E94AE
:1004F000571417C018D00ADF0C945B1481E00895DC
:100500000895CF93DF93D82FF9DFC82F882311F0F8
:100510008D2FF6DF8C2FDF91CF9108950895F1CFC5
:10052000089580E0FCCF0E946D13F9CFCF930E9415
:100530006D13C82F80913A018C1771F0C0933A0166
:100540000E94F81460933B0170933C0180933D013D
:1005500090933E018C2FE3DFCF910895ADE0B0E0A2
:10056000E4EBF2E00C94331D488759876A877B8758
:100570008C879D8791111DD71F8286E0FE013896DA
:10058000DE01119601900D928A95E1F78D8181111E
:100590000CC029813A814B815C816D817E818F8184
:1005A00058D62D96E2E00C944F1DCE010196E2DE66
:1005B0008111EFCFF6CFFC012481213019F4808125
:1005C000918106C40895CF93C82F8823B9F082384B
:1005D000B9F40E94821381FD11C089E30E94E113E6
:1005E00050D72FEF87EE93E0215080409040E1F705
:1005F00000C0000089E30E94E71343D7CF9108951C
:10060000833899F40E94821380FDF8CF83E50E941D
:10061000E11337D72FEF81EE94E0215080409040D6
:10062000E1F700C0000083E5E6CF843899F40E942A
:10063000821382FDE3CF87E40E94E11322D72FEFDC
:1006400081EE94E0215080409040E1F700C000002E
:1006500087E4D1CF8CEF8C0F813A68F48C2F0E9405
:10066000A613882321F08C2F0E94E7130AD78C2F22
:100670000E94E113C2CF80E28C0F883008F0BECF19
:10068000C77081E001C0880FCA95EAF775D6B5CF6B
:10069000882371F0823869F40E94821381FF08C0B8
:1006A00089E30E94E113EDD689E30E94E713E9C6CE
:1006B0000895833851F40E94821380FFF9CF83E5B7
:1006C0000E94E113DED683E5F0CF843851F40E9416
:1006D000821382FFEDCF87E40E94E113D2D687E434
:1006E000E4CF9CEF980F913A00F390E2980F983086
:1006F000F8F6877091E001C0990F8A95EAF7892F83
:1007000041D6D5CF1F93CF93DF93182FEB015BDF3B
:10071000209731F4812FBCDFDF91CF911F91089595
:100720008FE99FE00197F1F700C000002197F0CF1B
:1007300070E060E0893311F460E570E0E3CF882376
:1007400011F01AD69EC60895882311F01BD699C6BB
:100750000895B0E0A0E0EFEAF3E00C942C1D6C01EA
:10076000D62FC72FFC011581068102950F70FAD58F
:10077000E82E8823E9F0E12E1123D1F08C2F807F21
:10078000803461F080E28D0F8830F8F08C2F807E0D
:10079000803221F4D230C8F00023B9F080910802F1
:1007A00082FF13C082E089D6DDD591E0E82EE926EC
:1007B000BC2EB2949FE0B922FBE0FB1580F1EB2D3B
:1007C000F0E0E355F24E0C941D1DE12CF1CF0C2FFF
:1007D0000F70C07F11F00295007F112381F000237C
:1007E00049F080E28D0F883010F0D11105C0802FC4
:1007F000C3D547D68D2F40C0802FCED5FACF8D2FB1
:1008000047DF002361F080E28D0F883010F0D111B6
:1008100003C0802FB7D502C0802FC4D532D6EB2DB0
:10082000E850FF0B349708F02CC10E946D1377DE5F
:10083000CDB7DEB7E9E00C94481D2C2F2F70F22EB7
:10084000C07FC03219F0F29480EFF822DD2341F02E
:10085000D13081F1112309F439C00023C9F0CACF86
:100860008091080282FD10C0112341F0FF2019F091
:100870008F2D82D506D680E0A6DED1CF80E008DFBE
:10088000FF2069F28F2DC6CF112359F0011103C04B
:100890008F2D55DFC4CF013009F0C1CF8F2D9DD5ED
:1008A000BECF0111BCCF8F2D4FDF8F2DA1D58F2D46
:1008B00086D5B5CF112321F0063008F0B0CFE8CFB0
:1008C000053008F0ACCF8F2D3FDFA9CF0023D9F33F
:1008D000D93349F43FEF87EE93E0315080409040A8
:1008E000E1F700C000008D2FD3DE99CF8C2F8370ED
:1008F00081F5111194CF4D2F429546954770440FC5
:10090000440F2D2F2F7030E0042E02C0220F331F12
:100910000A94E2F790E080E0D4FF09C08FE090E015
:1009200002C0880F991F4A95E2F780959095C69569
:10093000C695C370822B932BC23039F040F4C1307E
:1009400011F036D16CCF2DD16ACF39D168CF27D1F4
:1009500066CF8695112311F08C2F8170882309F4BE
:100960005ECF4D2F429546954770440F440F2D2F73
:100970002F7030E0042E02C0220F331F0A94E2F7DA
:1009800090E080E0D4FF09C08FE090E002C0880FC3
:10099000991F4A95E2F780959095C695C695C370C4
:1009A000822B932BC23039F040F4C13011F05BD16F
:1009B00036CF52D134CF5ED132CF0ED130CFCF70BF
:1009C000112321F08C2F1CD18D2F63CF8D2FBCDEF6
:1009D0008C2F24D124CFD23F39F160F4D03FB9F02D
:1009E000D13F81F0112309F43CC0011103CF8C2FBA
:1009F0008F711EC0D33FF1F0D43FA1F78091080260
:100A000082FD20C08C2F8F71112319F311C0112387
:100A100039F0053008F003CF8C2F8F710FD1FFCE46
:100A2000063008F0FCCEF8CF8C2F8F711111D1CF8A
:100A3000E7D0F5CE112321F08C2F8F71D7D0EFCED8
:100A4000D2D0EDCE112329F063E08C2F8F711ED50B
:100A5000E6CE81E032D5023008F4E1CE82E02DD539
:100A6000DECE002359F0D93309F03DCFEFEFF7EE9A
:100A700023E0E150F0402040E1F733CF8C2F8F711D
:100A8000A8CFEE2009F4D4CE69D480FDD1CEF601F2
:100A900015825ED4B5D0C60117D05AD4BFD0C8CE07
:100AA0000F931F93CF93DF93EC01688179818D8140
:100AB00098D18C01E6D072D0B801CE014ADEDF9128
:100AC000CF911F910F910895CF93DF93EC018C810B
:100AD000882381F0CE01AEDC81110FC043D488237E
:100AE00049F08D81882331F08091080282FF02C095
:100AF00082E0E3D4DF91CF910895CE01D1DFCE0122
:100B00004DDCF8CF56D4BDC40E94ED13FBCF41D4C9
:100B1000FBCF92959F70963091F058F4925F9F7042
:100B2000923058F4803F19F030F4883E30F481E080
:100B300008959A5FF4CF843FD1F380E00895883E12
:100B4000B0F3813FD1F7F3CFFC012481222321F0C0
:100B5000808191813DD1DDCF80E00895A6E0B0E0B5
:100B6000E4EBF5E00C94331D2696E2E00C944F1D67
:100B7000A7E0B0E0EEEBF5E00C94331D2796E2E041
:100B80000C944F1D0895FECF0895FDCF0895FADF10
:100B9000FCDF909367018093660108950895F7CF75
:100BA00008952091660130916701822B932BEFCF3E
:100BB000209166013091670182239323E8CF209131
:100BC00066013091670182279327E1CFDBCF08953B
:100BD000FDCF0895D7CF0895FDDFFADF909365012B
:100BE00080936401089590E080E0F6CF21E030E04A
:100BF000A90102C0440F551F8A95E2F7CA01ECCF44
:100C000021E030E002C0220F331F8A95E2F7809185
:100C1000640190916501822B932BDECF21E030E0BF
:100C200002C0220F331F8A95E2F7209530958091FC
:100C300064019091650182239323CECF21E030E0BF
:100C400002C0220F331F8A95E2F7809164019091D0
:100C5000650182279327C0CF2091640130916501FF
:100C6000822B932BB9CF20916401309165018223AF
:100C70009323B2CF2091640130916501822793279D
:100C8000ABCF0895262F277091E001C0990F2A95C8
:100C9000EAF723E0769567952A95E1F7660F771FC7
:100CA000660F771FFA01E60FF71F50E040E0682F4C
:100CB00070E08191DF0111979B01042E02C03695EF
:100CC00027950A94E2F721702195282729232827C0
:100CD0002C934F5F5F4F4430510559F70895A82F6B
:100CE000A77023E0969587952A95E1F7880F991FBD
:100CF000880F991FFB01E80FF91F50E040E080E0EA
:100D0000219130E00A2E02C0369527950A94E2F729
:100D100021703327042E01C0220F0A94EAF7822B98
:100D20004F5F5F4F4430510559F70895262F9A3091
:100D300068F4873058F4682F70E087E0989F600D62
:100D4000711D112440E451E0822F9CCF0895292F7A
:100D50009A3058F4873048F490E060E471E037E06E
:100D6000239F800D911D1124BACF80E00895B0E03B
:100D7000A0E0EDEBF6E00C942C1D7C0100916401E9
:100D8000109165018091660190916701082B192BE4
:100D9000CFE0D0E0CC24C394D12CBC2EC6010C2EC5
:100DA00002C0880F991F0A94E2F780239123892BB0
:100DB00049F4219790F7B12C8B2DCDB7DEB7E9E040
:100DC0000C94481DB7018C2FB6D5019791F3F4CF41
:100DD000CF93DF93EC01CBDFBE01ADD5DF91CF9197
:100DE00008951F93CF93DF93EB0190913F019923D7
:100DF00031F0CB01EDDFDF91CF911F910895882372
:100E000051F0CB01B4DF182F682FCE018FDFBE0168
:100E1000812F91D5F0CFCB019ADF182FF8CF1F93F8
:100E2000CF93DF93C091680117E0809169018C1323
:100E300004C0DF91CF911F910895D0E01C9FF00175
:100E40001D9FF00D1124E659FE4F20813181428112
:100E500053816481758186818BDE2196C770E5CFD1
:100E60002091A2013091A3014091A4015091A501CC
:100E70006091A6017091A7018091A80179CECF93CE
:100E8000DF938091A801807F09F04BC08091A7017A
:100E9000882309F446C0E091680150916901C0912E
:100EA000A301D091A2016091A4017091A50147E036
:100EB0005E17B9F18E2F90E0E49FF0011124E659FE
:100EC000FE4F2481222381F1489FF001499FF00DBC
:100ED0001124DF01A659BE4F11962C9111972C13A6
:100EE00023C02C912D1320C015962C9115972111FC
:100EF0001BC012962D913C91261B370B28373105CC
:100F000098F48091A8018F7080618093A801E059C6
:100F1000FE4F80818F708061808382EA91E0D4DD12
:100F20007EDFDF91CF910895FC013196E770C0CF4D
:100F3000482F209168019091690157E0291302C060
:100F400080E0089530E0529FF001539FF00D11248E
:100F5000E659FE4F8181681306C08081481303C0A3
:100F600085818111EECF2F5F3F4F2770E7CFA4E13E
:100F7000B0E0EDEBF7E00C94291D8C0186E0F80160
:100F8000DE011F9601900D928A95E1F7F8018481A8
:100F9000E58092EAA92E91E0B92E9091A6019111D7
:100FA0001AC08823A9F0EE2089F0C801CDDDF82E03
:100FB000882361F087E0F801D50101900D928A95B0
:100FC000E1F7C501F8DA5BDF4BDF59C0C8017CDD12
:100FD000FF24F39454C0C080D18082809380F0902D
:100FE000A7012091A4013091A501A401421B530B3C
:100FF000FF2009F4E9C04837510508F09CC0882358
:1010000009F43DC09091A3018091A801282F207F71
:1010100009F056C09D1114C09091A201C91210C0D0
:10102000E11048C08F7080618093A80119DF82EAC7
:1010300091E04ADD8091A801F8018683F12C1FC060
:10104000E11038C06D2D8C2D73DF6D2D8C2D70DF70
:10105000E82E8111F3CFCF86D88A8F859889B8DEA4
:10106000292F22952F70243078F49F702230A0F021
:101070009923B1F0F8019681907F91F4FE2C8F2D89
:101080006496ECE00C94451D2A5F2F70223060F0CE
:10109000C8011ADDEF2CF2CF992311F0882371F3E8
:1010A000805E883058F3F4CF803F40F3815F833017
:1010B00078F7E4CF8091A80181608093A801BECF2A
:1010C0009D1112C09091A201C9120EC0E1100CC076
:1010D0008683C801F9DC87E0F801A2EAB1E001905B
:1010E0000D928A95E1F770CFC8012EDD882309F4AF
:1010F0006DCFEE2009F46ACF8091A801803280F094
:101100002091A2013091A301398728879B868A8686
:101110009091A6019C871D868E87CE010896D4DC0F
:1011200087E0F801A2EAB1E001900D928A95E1F71B
:10113000A6DE96DE4DCF9091A801292F207F89F45D
:10114000682D9A8A898AA6017A899E2D07DD82EA0E
:1011500091E0BADC87E0F50111928A95E9F780DE2B
:101160006DCF882309F48BCF8091A3018D110FC01F
:101170008091A201C8120BC0E11009C09683C8017A
:10118000A3DC87E0F50111928A95E9F778CFC801D1
:10119000DBDC882309F41ACFEE2009F417CF809105
:1011A000A801803208F4BCCF2091A2013091A301A4
:1011B0003A8329839C828B829091A6019D831E8213
:1011C0008F83CE010196ABCF48375105A8F5882310
:1011D00009F4FECEFE2CEE2009F4F8CE8091A30196
:1011E0008D111EC08091A201C8121AC08091A80161
:1011F00080FD0DC0982F907F51F08683903F09F4B9
:1012000068CF982F907F905F8F70892B61CF87E098
:10121000F801A2EAB1E001900D928A95E1F72FCF93
:10122000C80192DC81117CCF8091A80181608093FC
:10123000A801C80149DC23CF682D9A8A898AA601B2
:101240007A899E2D8BDC87E0F50111928A95E9F76A
:10125000BBCEAEE0B0E0EFE2F9E00C94321D28879F
:1012600039874A875B876C877D878E87CE01089692
:101270007EDE8823A9F06C85662339F028853985C0
:101280004A855B857D858E8573DC17E080916801DA
:101290009091690189133BC02E96E3E00C944E1D9A
:1012A00087E0FE013896DE01119601900D928A9535
:1012B000E1F78C85882349F32091690130E0C90169
:1012C000019687709927409168014817190691F097
:1012D00097E0929FD001939FB00D1124A659BE4F65
:1012E000FE01319601900D929A95E1F78093690184
:1012F00096DDCBCF0CDC109269011092680187E07B
:10130000E2EAF1E0DF011D928A95E9F7BECF819F05
:10131000C001112486599E4F2ADE882309F4BCCFD0
:10132000E09168011E9FF0011124E659FE4F2081D3
:1013300031814281538164817581868119DC80917C
:10134000680190E0019687709927809368019ECF8D
:101350008091B10186958695869508958091B10119
:10136000877008959091B101977081E009F480E051
:1013700008958091BD0108959091BD01892B8093BE
:10138000BD01089580959091BD0198239093BD0172
:1013900008951092BD0108959091BC01892B80930E
:1013A000BC01089580959091BC0198239093BC0155
:1013B00008951092BC0108950895FECF089590916C
:1013C000B201292F282329F0809589238093B20127
:1013D000F4CF08950895FECF08959091B301292F79
:1013E0002823281721F0982B9093B301F4CF089568
:1013F0009091B301292F282329F080958923809388
:10140000B301E9CF08958091B301882321F01092B0
:10141000B30180E0E0CF08950F931F93CF93DF9344
:101420000091000110910101C091BD018091BC01AA
:10143000C82B8091B301882329F0C82B0E949113F7
:101440008111E1DFF801C083C0910001D091010159
:1014500048E050E069EA71E0CE010E945A1D892BF4
:1014600059F088E0FE01A9EAB1E001900D928A9559
:10147000E1F7CE010E948413DF91CF911F910F916C
:101480000895CACF08950895FECF08959091080257
:1014900092FF0EC098E0899F90011124622B609307
:1014A000B101AEDB8091B101869586958695ECCF32
:1014B000A7CB1092B10180E0E7CF9091B101809568
:1014C00089238093B101282F277059F4891749F097
:1014D0009091080292FF05C08695869586959EDBC1
:1014E000E8CF08959091080292FB222720F928174F
:1014F00049F080FB92F99093080287E092E046D091
:1015000082E0DBCF08958091080282FB882780F972
:1015100091E08927E7CF81E0E5CF80E0E3CF60E08D
:1015200070E0CB0197C360E070E0CB018DD3F7CFC3
:10153000A3E0B0E0EEE9FAE00C94331D3ED349D3CA
:101540001B82CE0103965CD381E090E0909367010B
:101550008093660161D31A8219828A8184618A83A9
:10156000CE0101966AD3DFDF2396E2E00C944F1D93
:10157000DFCF089534C3089521C3089536C3089575
:1015800045C3089549C308954CC3089556C30895AB
:1015900067C30895A6E0B0E0E0EDFAE00C94311DD9
:1015A0000E94EC148C018091BE019091BF018017C4
:1015B000910781F019821A820E94EC14682F4981E8
:1015C0005A81792F80E090E00E94AE021093BF0113
:1015D0000093BE012696E4E00C944D1DC3D26093A7
:1015E000CE017093CF018093D0019093D10160938D
:1015F000CA017093CB018093CC019093CD010895E3
:1016000008950895FDCF08950895FEDFFBCF089556
:10161000FECF08950895FEDFFBCF81E0089589ECA9
:101620009DE098D6EEDFF1CFBEC4089508950895E9
:101630000895FCDFFCDFFCCF9FDF811101C098DF44
:1016400082ED91E09BDF87E092E09EDF99DFA7DAF1
:101650008091640190916501BBCA0E94E3145ED23F
:10166000A7D401D4E9DF0E948E0279D6AED4D3CFBD
:10167000A6E0B0E0EEE3FBE00C942A1DCEDF811182
:1016800008C088DF90D40E9496022696EBE00C9466
:10169000461D08D480ECA82E81E0B82E750110E01C
:1016A000F70101917F01812FE6D21F5F1A3009F403
:1016B0003DC00817A9F38091D20181FDE2D2B4DFC9
:1016C000C82E10E099249394812FD5D2082FF501CC
:1016D00081915F01081729F1F12CEE24E394D02EBB
:1016E000D8268D2D8E21A9F0CC2099F0F9821A836D
:1016F0000E94EC149C838B839D8291E0802F8E212D
:1017000009F490E049815A816B817C818D810E942E
:10171000AE02F394EE0CF7E0FF12E3CFF501319740
:1017200000831F5F1A3081F659DFACCF0813C3CF97
:10173000A8CF1F93CF93DF9300D1EC01C11582E5B1
:10174000D80708F03DC0C11590E5D90708F0BEC024
:10175000C83ED105C0F4C03ED10580F4C53AD105DC
:1017600048F4C430D10550F4C130D10539F0D0E08F
:10177000C0E004C0CD3CD105D0F3D065CE01DF91EF
:10178000CF911F910895C11580E4D80708F050C08B
:10179000C11590E2D90708F0B3C0C11581E0D807A0
:1017A00030F38D2F6CD1182FCE019927C6D0C12FC1
:1017B000D0E0DC2FCC27CC27DF71C82BD92BDECF94
:1017C000C03892E5D907A8F4C03682E5D80708F0FA
:1017D00061C0C03492E5D90708F047C0C03282E545
:1017E000D80778F1CF71D0E0DC2FCC27C16FD06A59
:1017F000C5CFC03C92E5D90778F48C2F8F71C03AE1
:10180000D24508F45CC03BD1C82FD0E0DC2FCC27F8
:10181000CC27DF71D062B2CFC03E82E5D80708F096
:10182000A6CFDC2FCC27CC27DF71C06FD06AA6CF24
:10183000CE01992782D0CC27DF70C82BD92BD06A54
:101840009DCF2C2F2695269590E2299F900111245B
:101850008C2F8370C1E0D0E002C0CC0FDD1F8A95D1
:10186000E2F7C22BD32BDD6889CF2C2F2695269546
:10187000277080E2289F900111248C2F8370C1E093
:10188000D0E002C0CC0FDD1F8A95E2F7C22BD32B2C
:10189000DC6874CF2C2F26952695277090E2299F1F
:1018A000900111248C2F8370C1E0D0E002C0CC0FD6
:1018B000DD1F8A95E2F7C22BD32BDA685FCFC82FE2
:1018C000D0E0DC2FCC27C46FD06A58CF8C2F8F711B
:1018D000D6D055E0D695C7955A95E1F7CF70D0E0B0
:1018E000DC2FCC27282F30E084FF06C044E0220FF5
:1018F000331F4A95E1F73327C22BD32BD0693ECF54
:101900008D2F8F71BCD0182FCE01992716D0C12FE3
:10191000D0E0DC2FCC27CC27DF71C82BD92B7ACF96
:10192000462F7A3028F4673018F4672F0C94710131
:1019300090E080E00895F4DFFCCE82389105B9F1A3
:10194000B0F48133910509F47DC048F489329105E2
:1019500009F46DC08A32910509F47BC0089585337E
:10196000910509F45FC08933910509F10895833E1B
:101970009105D9F138F4803E910529F1823E910517
:1019800079F10895863E9105D9F1873E910509F4D4
:101990003EC0843E910541F52091080221FF24C0FC
:1019A0008091070284FD19C087EE90E00895209190
:1019B0000702237009F05AC02091080223FF14C0C7
:1019C00089E290E008952091070220FD38C030910F
:1019D000080230FF09C024FF43C090E080E0089572
:1019E0002091070222FDF7CF08952091070222FDE2
:1019F0003AC03091080230FD39C024FFF5CFEDCF59
:101A00002091070223FFF0CF24FDE7CFCDCF209117
:101A1000070223FD2EC03091080231FFEECF84EE85
:101A200090E008952091070225FFDECFC9CF2091D5
:101A3000070225FD21C02091080223FFD5CF89E3AD
:101A400090E0D2CF2091070226FFCECF8AE290E02D
:101A500008952091070226FFC7CF81E390E0089503
:101A600083EE90E0089582EE90E0089580EE90E09D
:101A7000089586EE90E0089585E390E008959091B2
:101A8000070292FF10C041E0282F2471243009F092
:101A900040E031E0282F2871283009F030E043176A
:101AA00011F02CE0822793FF10C041E0282F247111
:101AB000243109F040E031E0282F2871283109F065
:101AC00030E0431711F02CE082273091080230FFFC
:101AD00010C051E0282F2171213009F050E041E081
:101AE000282F2871283009F040E0541711F029E020
:101AF000822731FF10C041E0282F2171213109F0E8
:101B000040E031E0282F2871283109F030E04317F8
:101B100011F029E0822794FD877E08951092090232
:101B200010920A0210920B0210920C020895CF92AA
:101B3000DF92EF92FF926B017C0135D281110DC0D3
:101B400057D7C61AD70AE80AF90AC0920902D092F2
:101B50000A02E0920B02F0920C02FF90EF90DF90ED
:101B6000CF9008950F931F931ED2882321F040D762
:101B70001F910F9108953CD70091090210910A021C
:101B800020910B0230910C02600F711F821F931F76
:101B9000EFCF80E00895CF939C01205E3245C1E0F5
:101BA0002032310538F4FB01C581C11103C08F71AA
:101BB0000E94EA018C2FCF910895089590E080E073
:101BC0000E94781D21E0833E9E4F09F020E0822F85
:101BD000089563EE7EEF90E080E00C94971D6FEF28
:101BE0007FEF90E080E00C94971DCF93DF93EC01A2
:101BF00082E090E00E94701D8883DF91CF9108956C
:101C0000FC01608182E090E00C947D1D83E090E017
:101C10000E94701D90E00895682F83E090E00C947E
:101C20007D1DCF93DF93EC0184E090E00E94781D4E
:101C300099838883DF91CF910895FC016081718140
:101C400084E090E00C94971DAB01BC018FE090E024
:101C50000C948F1DAB01BC0183E190E00C948F1DAF
:101C6000682F8EE090E00C947D1D0895FECF0895BE
:101C70000895FECF0895E82FF0E0E85EFD4F8081E3
:101C80000895089580EA8A95F1F7089500C00895AF
:101C9000F9CF08950895FECF0895A5E0B0E0E3E5FB
:101CA000FEE00C942F1D7FD1F82E60912202882334
:101CB00009F43EC085E0E82E8E010F5F1F4FF8014A
:101CC0008E2D11928A95E9F7862F90E0B801885EF3
:101CD0009D4F87D18823B1F080910D0290E045E0BF
:101CE00050E0B801885E9D4F0E945A1D21E020936C
:101CF000D301892B89F4F12CBCDF8F2D2596E6E0EA
:101D00000C944B1D8091D3018823A9F3F801119203
:101D1000EA94E9F71092D301A0910D02B0E0A85E19
:101D2000BD4F85E0F80101900D928A95E1F7E4CF6F
:101D300070E0685E7D4F80910D0290E0885E9D4F5F
:101D4000D0D1A9DFDACFF894E82FE295EF70F0E078
:101D500031A1282F2F7081E090E001C0880F2A95D3
:101D6000EAF7982F9095932391A392A1892B82A3B0
:101D7000789408950F931F93CF93DF93C0E3D1E03E
:101D800089918F3F09F0DFDF81E0C533D807C1F7C4
:101D9000C9E2D1E000E311E089918F3F09F0D3DF80
:101DA0000C171D07C9F7DF91CF911F910F9108956F
:101DB000B0E0A0E0EEEDFEE00C942D1DEC01D62E7F
:101DC000062F10E0C801805D9E4F7C01FC018081E0
:101DD0008F3F09F441C0F894E82FE295EF70F0E0EE
:101DE00091A18F7021E030E001C0220F8A95EAF7BF
:101DF000892F822B81A382A12095282322A3789466
:101E000045DFE9E2F1E031E0C12C21912F3F49F1BA
:101E1000A22FA295AF70B0E090968C9190E02F70B9
:101E200002C0959587952A95E2F780FD1AC0832F09
:101E3000C82A330F81E0E033F80739F7F7018081D2
:101E40008F3F09F080DF61E0C11001C060E08D2D9F
:101E50001FDFC00FD11FC882CDB7DEB7E8E00C94FA
:101E6000491D80E0E5CF809102018091020195E05B
:101E7000811190E09093220285E0891B80930D02EE
:101E800079DF8AE0E8E1F2E0DF01982F1D929A9570
:101E9000E9F7EEE0F2E0DF011D928A95E9F785E0CF
:101EA0003CD0E4CEAAE0B0E0E8E5FFE00C94301DC1
:101EB0008E010F5F1F4F8AE0F80111928A95E9F7B2
:101EC000F12C6F2DC80174DFF394F5E0FF12F9CF08
:101ED0004AE050E0B8018EE092E00E945A1D21E0F5
:101EE000009709F420E0892B41F08AE0F801AEE088
:101EF000B2E001900D928A95E1F76091220270E0C4
:101F0000685E7D4F45E08EE092E008D0182FC5DE78
:101F1000812B2A96E5E00C944C1D0895B0E0A0E0DA
:101F2000E4E9FFE00C942D1D6C017B01042FC22F0E
:101F3000222371F081E08093D6014ED59093D50194
:101F40008093D40180E0CDB7DEB7E8E00C94491D62
:101F5000D091D601DD23B1F38091D4019091D501C8
:101F6000BCD4059778F310E0A801B601C7010E9420
:101F70005A1D892B31F0A801B601C7010E94671DC7
:101F8000CD2F1092D6018C2FDECFCF930E94101D43
:101F9000C82F811102C00E940C1D8C2FCF91089573
:101FA0008091DA0108958091D9010895FCCF0895B8
:101FB000ECDF8093D901FADF8093DA01F1DF8093BF
:101FC0000201F1DF811140C00895EDDF811101C0F0
:101FD0003DC0089581E09091DB019A3008F080E0E7
:101FE00008950F931F93CF93DF93EC018B018091A2
:101FF000DB018A30A8F4B801CE0171D0C82F81115D
:1020000020C08091DB018F3FA9F4E6D49093D801E2
:102010008093D7018C2FDF91CF911F910F9108955D
:102020008091D7019091D80158D4843F914018F7FE
:10203000C0E0F0CF8F5F8093DB018A3030F7C1E0E2
:10204000E9CF1092DB01E6CF75C5089576C50895F6
:10205000B0E0A0E0EEE2F0E10C942E1D7901C82F73
:10206000880FDD0B41155105A9F0FE0193E0EE0F3D
:10207000FF1F9A95E1F7ED5FFE4F818192818452B7
:102080009E4F208130E04217530708F49A01A901BE
:102090000E94671DCE0131D6D82E8823D1F00115BC
:1020A0001105B9F083E0CC0FDD1F8A95E1F7FE0141
:1020B000ED5FFE4F438150E00417150708F4A801B7
:1020C000CD5FDE4F6C817D8164527E4FC7010E94DF
:1020D000671D8D2DCDB7DEB7E7E00C944A1DE4C037
:1020E0000895F7C00895A4E0B0E0E9E7F0E10C94AA
:1020F000311D6091F3017091F4018091F50190918F
:10210000F601F4D311E0643671058105910500F103
:1021100029DD6E5F7F4F8F4F9F4F69837A838B835B
:102120009C8310E000E030E020E044E050E0BE019D
:102130006F5F7F4F82E08CDF182F882349F058D4DF
:102140006093F3017093F4018093F5019093F6018D
:10215000812F2496E4E00C944D1DB0E0A0E0E3EB69
:10216000F0E10C942B1D7C015B016A0133DF01E07F
:1021700010E0882311F00AE010E0C1E0D0E0B501E2
:10218000C701F6010995811104C021960C171D079E
:102190002CF4CDB7DEB7EAE00C94471DCC9F90013C
:1021A000CD9F300D300D112490E080E045E34A953D
:1021B000F1F70000019682179307C1F7E0CFA6E080
:1021C000B0E0E5EEF0E10C942B1D7B01C0903501F1
:1021D000D090360101E010E09E012A5F3F4F50E0B1
:1021E00040E070E060E080E033DF182F882309F4DE
:1021F00043C056018FEFA81AB80A6091EF017091A1
:10220000F0018091F1019091F20170D36436710573
:102210008105910550F105E010E09E012F5F3F4FD1
:1022200050E040E070E060E081E012DFD82E65E031
:1022300070E0C50195D011E09E81981310E01D213A
:1022400031F1D6D36093EF017093F0018093F101E7
:102250009093F20185E0FE013196AAEEB1E0019083
:102260000D928A95E1F711E012C065E070E0C501BA
:1022700077D09E818913CFCF85E0F6013196DE01BC
:10228000119601900D928A95E1F71111E3CF85E047
:10229000EAEEF1E0D70101900D928A95E1F7812FE6
:1022A0002696EAE00C94471D0F931F93CF93DF937C
:1022B000EC018B014FED50E150DF882329F043E71B
:1022C00050E1B801CE0149DFDF91CF911F910F910D
:1022D00008950F931F93CF93DF93C0913501D09151
:1022E0003601CE01019625E0FB01DC0101900D9243
:1022F0002A95E1F765E070E033D088836E817F81B5
:10230000888599850091E6011091E7012091E80107
:102310003091E901601771078207930749F06093D4
:10232000E6017093E7018093E8019093E901FFDBF8
:10233000DF91CF911F910F9108959AC90895E6D228
:1023400064D66DD97AD689D981D683D6F6DF97D669
:1023500070D9FBCF90933901809338010895089587
:10236000FC01680F791F8FEF91E3E617F70709F477
:1023700008952191822728E030E087FF06C0880F6A
:10238000892721503109C9F7F0CF880FFACFCF93B1
:10239000DF93EB0186319C47F9F40E94B9099D81D6
:1023A000992389F08A7A91E009F490E09093F701FB
:1023B000811107C089E205D264D880E0DF91CF9116
:1023C000089585E3F8CF8091F701811103C089E278
:1023D000FED1F2CF85E3FCCF81E0F0CFCF93DF9346
:1023E000EC01FB018581882309F4CBC09E013057A5
:1023F0002332310508F0ABC087E092E0C5D8FE017A
:10240000E150F047E232F10520F4E754F24E0C942B
:102410001D1D8091070281608093070292C0809108
:1024200008028860809308028CC080910702826055
:10243000F3CF809107028460EFCF8091070288601C
:10244000EBCF809108028160EDCF8091080282601D
:10245000E9CF809107028061DFCF8091070280621F
:10246000DBCF809107028064D7CF0E9487058091DF
:1024700007028068D1CF809107028C60CDCF809118
:1024800008028360CFCF809107028E7FC5CF8091F5
:102490000802877FC7CF809107028D7FBDCF8091D3
:1024A00007028B7FB9CF80910702877FB5CF8091DC
:1024B00008028E7FB7CF809108028D7FB3CF8091C5
:1024C00007028F7EA9CF809107028F7DA5CF8091D3
:1024D00007028F7BA1CF0E948705809107028F772B
:1024E0009BCF80910702837F97CF809108028C7FDA
:1024F00099CF8091070282FB992790F921E09227DA
:1025000090FB82F990FB83F987CF80910802982F86
:10251000909591708E7F892B90FB81F983CF90915C
:102520000702892F8F7B96FF806476CF0E948705F4
:1025300090910702892F97FB87F980586DCF81E032
:1025400027D887E092E022D80E94870580E0DF91BB
:10255000CF91089580E0F4CF90910702892F8F7E6C
:1025600094FF806159CF90910702892F8E7F90FF51
:10257000816052CF90910802892F877F93FF8860F6
:1025800051CF81E0E4CF0F931F93CF93DF93C42FFC
:10259000D22FFC0185818823C1F04093FA011CD21F
:1025A0009093F9018093F80180E28C0F883040F419
:1025B000C77081E001C0880FCA95EAF70E949F03A7
:1025C000DF91CF911F910F9108951091FA0114138B
:1025D00031C08091F8019091F9017FD18837910540
:1025E00048F5C0E2CD0F1D17B9F080E2810F8830A9
:1025F00040F4177081E001C0880F1A95EAF70E9435
:10260000A403C83048F481E09D2F977001C0880F63
:102610009A95EAF70E949F03802F0E949803C83082
:1026200078F6D77081E001C0880FDA95EAF70E944A
:10263000A403C6CF80E28C0F883010F6C77081E00B
:1026400001C0880FCA95EAF7F2CF0F93DB018851DA
:102650009C478730910598F5FC01E552F24E0C94A9
:102660001D1D06E221EE41EE6AE17CE7CD018BDF24
:1026700080E00F91089507E225EE45EE6BE17CE7DF
:10268000F5CF06E221EE40EE68E17CE7EFCF07E20E
:1026900025EE44EE69E17CE7E9CF06E221EE42EE69
:1026A0006CE17CE7E3CF07E225EE46EE6DE17CE7E7
:1026B000DDCF08E221E045EE6EE17CE7D7CF15964D
:1026C0008C91882319F01092FA01D3CF81E0D1CFF9
:1026D0009093FD018093FC01089565DC811103C096
:1026E0008091FB010895E091FC01F091FD0130978C
:1026F00039F00190F081E02D309711F0099508959F
:1027000080E00895EACF0895E091FC01F091FD0189
:10271000309731F00280F381E02D309709F0099570
:10272000089540910001509101019A012E5F3F4FA1
:10273000485F5F4F80E02417350709F40895F901D9
:1027400091919F019923B9F38F5FF5CF882371F0A1
:102750002091000130910101F9013296285F3F4F2D
:102760009191981729F0E217F307D1F780E00895C7
:1027700081E008959C01FC0132969FEF80E0419139
:10278000461751F09F3F19F4411101C0982F8F5FF8
:102790008630A9F79F3F09F40895290F311D97FD51
:1027A0003A95F90162830895FC01329608962191C9
:1027B000261303C0DF0111971C92E817F907B9F738
:1027C0000895682F8091000190910101D3CF682F67
:1027D0008091000190910101E7CFE0910001F0911B
:1027E0000101329686E0DF011D928A95E9F708958E
:1027F0000895FECF089581110CC081E080931E01E1
:1028000060911B0170911C0180911D0190911E012E
:10281000F0CF82E0F3CF83E080931E0160911B0133
:1028200070911C0180911D0190911E01E2CFE3CFB8
:10283000089581E080931E0160911B0170911C013D
:1028400080911D0190911E01D4CFF3CF089591E0A6
:10285000811101C090E090931D0160911B01709166
:102860001C0180911D0190911E01C3CF80911D011B
:10287000089580931C0160911B0170911C0180914F
:102880001D0190911E01B5CF80911C010895809388
:102890001B0160911B0170911C0180911D019091A1
:1028A0001E01A7CF80911B01089508950895FECFC2
:1028B000089508950895F9CF0895CF93FADFF2DAD5
:1028C000F9DFC0E08C2FD7D9811105C0CF5FCA30A6
:1028D000C9F7CF91089581E0FCCFCF93DF93EC014E
:1028E0007BD08C1B9D0BDF91CF910895CF92DF920F
:1028F000EF92FF926B017C017BD06C197D098E09F0
:102900009F09FF90EF90DF90CF90089585B7806882
:1029100085BF85B7806885BF08951F921FB61F9237
:1029200011248F939F93AF93BF938091FE018111E8
:1029300013C08091230290912402A0912502B091AE
:1029400026024196A11DB11D80932302909324027B
:10295000A0932502B0932602BF91AF919F918F91D2
:102960001F901FBE1F90189580912B02843031F16B
:102970000E9476021092FE0188E190E020E40FB6FA
:10298000F894A895809360000FBE2093600083B7F1
:10299000817F846083BF83B7816083BF789488958B
:1029A00083B78E7F83BF0FB6F894A895809160009F
:1029B000886180936000109260000FBE08950E94AD
:1029C00087050C947A0282E084BD93E095BD9AEF6E
:1029D00097BD80936E0008952FB7F89480912302DD
:1029E00090912402A0912502B09126022FBF089554
:1029F0002FB7F894609123027091240280912502F0
:102A0000909126022FBF089578941F921FB61F92AF
:102A100011248F939F93AF93BF9380912302909142
:102A20002402A0912502B09126020196A11DB11D9C
:102A30008093230290932402A0932502B093260250
:102A4000BF91AF919F918F911F901FBE1F901895BE
:102A500087E797E7909301088093000888E19AE060
:102A60000FB6F894A895809360000FBE9093600015
:102A7000FFCF88E19AE00FB6F894A89580936000A4
:102A80000FBE90936000FFCF8EE14A9B02C0815041
:102A9000E1F74A9BFECF08955A9880E28A95F1F7B4
:102AA0005A9A0895FC013BE03A95F1F798E020E04E
:102AB00080E031E040E14A95F1F7880F4A9B02C07F
:102AC0008160232742E04A95F1F7000040E14A95F2
:102AD000F1F7915079F790E19A95F1F799B132E0D9
:102AE0003A95F1F7000040E14A95F1F792FB9927FA
:102AF00090F992272081920F90830895A1E0B0E091
:102B0000E3E8F5E1ACC719828C017C01E60EF11C0B
:102B10000E151F0539F481E09981911180E021960D
:102B2000E6E0B9C7B1DFCE010196BCDFF8018193C1
:102B30008F01EECF529A5A9A089552985A9AEA9A69
:102B4000E9E6F0E080818F7C808308956150770B07
:102B500091E001C0990F6A95EAF720E031E0911108
:102B600008C0222391F05A9A80E28A95F1F75A9888
:102B70000895492F482339F05A9A232740E24A956D
:102B8000F1F79695ECCF5A98F9CF5A98EDCFFF927E
:102B90000F931F93CF93DF93EC018C01060F111D50
:102BA000C017D10721F4CDB7DEB7E5E075C7F990BE
:102BB00073DF68E08F2DCADFF3CF1F920F920FB63D
:102BC0000F9211240F931F932F933F934F935F9373
:102BD0006F937F938F939F93AF93BF93EF93FF93E5
:102BE000CF93DF930F92CDB7DEB719824DDFCE01C1
:102BF000019658DF082F069506950695282F2295F1
:102C00002570902F9570290F922F937026952695F9
:102C1000920F982797708981982B09F058C004303B
:102C200008F055C080E18A95F1F75A9A529A82E0ED
:102C30008A95F1F700C05A9888E0089F8001112416
:102C4000D801AD5FBE4F1696ED91FC911797309766
:102C5000A9F0609135017091360114962D913C9147
:102C60001597260F371F11968D919C911297680F1B
:102C7000791F13964C9113978C910995F801ED5F8C
:102C8000FE4F6381662349F0209135013091360172
:102C900084819581820F931F7ADFFEDE80E18A9521
:102CA000F1F75A9852985A9A80E18A95F1F7F8010B
:102CB000ED5FFE4F6081662349F020913501309130
:102CC000360181819281820F931F18DFDDDE0F9024
:102CD000DF91CF91FF91EF91BF91AF919F918F9134
:102CE0007F916F915F914F913F912F911F910F9124
:102CF0000F900FBE0F901F9018950F931F93CF93B7
:102D0000DF93EC0104970CF049C0F894529A5A985A
:102D100085E08A95F1F700009C2F969595708C2F91
:102D20008570980F892F83709695969523E0CC0F28
:102D3000DD1F2A95E1F7980F8E01092BADDE00C04B
:102D400068E0802F03DF80E18A95F1F752985A9A64
:102D50004A9B1DC087E090E04A991BC0FE01ED5FD1
:102D6000FE4F63816623F1F02091350130913601E9
:102D700084819581820F931FC1DE811113C0529A05
:102D80005A9A7894DF91CF911F910F91089500C0C6
:102D9000DFCF019729F4529A5A9A789480E0F2CFC3
:102DA00000C0DACF71DE80E28A95F1F75A98529A24
:102DB00080E18A95F1F7CD5FDE4F6881662349F0A7
:102DC000209135013091360189819A81820F931FBC
:102DD000DEDE62DE789481E0D5CF0895089508950F
:102DE0009B01BA0190912B029430E1F48F70809393
:102DF000E9009FEF8091E800915085FD06C085EDC8
:102E00008A95F1F700009111F5CF8091E80085FFD8
:102E100009C050E040E0C90195D18091E8008E776B
:102E20008093E8000895CF93DF93EC011FDD48E025
:102E300050E0BE0181E0D4DF88E0FE01AFEFB1E0F9
:102E400001900D928A95E1F7DF91CF9108958091DD
:102E50002A02811107C004D35BD38091E200846011
:102E60008093E200089510922A020895E2DC81E046
:102E7000EECC6091270281E0611101C080E0CBCCF3
:102E800090912B0281E0943009F080E0609127025C
:102E9000CECC42E061EC81E05FD290912B0281E0E8
:102EA000943009F080E060912702A5CC80912D023A
:102EB000833009F45EC030F48130C1F1823009F40E
:102EC00094C008958A3009F483C08B3009F46BC034
:102ED000893009F04DC080912C02813209F048C040
:102EE0008091300290913102892B09F041C080918C
:102EF000E800877F8093E8008091E80082FF34C07B
:102F00009091F3008091F200029731F48091F100EA
:102F1000813011F0863019F48091F100AADC8091A3
:102F2000E8008B778093E8004BD222C080912C027E
:102F3000813AF1F48091E800877F8093E8008091E6
:102F4000300290913102892B59F468E08FEF91E0C3
:102F500070E045D18091E8008B778093E800089578
:102F600060E090E080E0F4CF80912B028111C4CF2B
:102F7000089580912C02813AD9F780913002909186
:102F80003102892BA9F78091E800877F8093E800C0
:102F90008091E80080FFFCCF69DC8093F100809194
:102FA000E8008E77BFCF80912C02813209F78091A3
:102FB000300290913102892BD9F68091E800877F09
:102FC0008093E800FDD180912E0241DC0C948705AE
:102FD00080912C02813261F68091E800877F809396
:102FE000E800EED180912F0252CC80912C02813AE0
:102FF00009F0BECF8091E800877F8093E800809140
:10300000E80080FFFCCF4EDCC8CF84B7877F84BF49
:103010000FB6F894A8958091600088618093600055
:10302000109260000FBE80E890E00FB6F894809395
:103030006100909361000FBE08CC12D269D2E2EE1B
:10304000F0E08081846080837894CCC48FE191E04B
:103050003FCB80912B02853029F480912B02853063
:1030600011F0ADCC089580DC28DC8823B1F3809189
:103070002902882391F350D00E948705EECF08954E
:103080009A01409132025091330200C0492F5527D6
:1030900043305105C9F058F44130510599F142309F
:1030A0005105A9F190E080E050E040E01DC04132C0
:1030B000510509F142325105A9F784E490E04AE252
:1030C00052E0672B79F710C099278130910581F084
:1030D000009729F0029731F7E4ECF1E002C0E2EF4B
:1030E000F1E0849190E0AF01F901518340830895AC
:1030F000E4EEF1E0F6CF89E090E048E052E0672BA3
:1031000089F6F2CF82E190E048E152E0EDCF82E231
:1031100090E046EF51E0E8CF80E189BD82E189BDD2
:1031200009B400FEFDCF8091D8008F7D8093D80038
:103130008091E00082608093E0008091E00081FD5A
:10314000FCCF0895AF92BF92CF92DF92FF920F9380
:103150001F93CF93DF936C01EB018A0150D1F82EBE
:10316000811123C00115110539F0F8018081918189
:10317000C81BD90BC80ED91EB12CA12C2097A9F0C1
:103180008091E80085FD21C08091E8008E778093D2
:10319000E80001151105A1F0F80180819181A80EC8
:1031A000B91EB182A08285E0F82E8F2DDF91CF91DC
:1031B0001F910F91FF90DF90CF90BF90AF90089537
:1031C0001ED18823D9F2F82EF0CFF60181916F013C
:1031D0008093F1002197FFEFAF1ABF0ACFCFFC0118
:1031E000809132029091330286179707A0F0611503
:1031F000710529F49091E8009E779093E80090E0A3
:103200006115710551F4911108C08091E80082FFA9
:1032100034C080E00895BC01F2CF80912B02882356
:10322000C1F18530C1F18091E80083FD30C080910B
:10323000E80082FDEACF8091E80080FFE1CF809135
:10324000F3002091F200382F6115710519F0283034
:10325000310558F091E02830310509F090E02091D7
:10326000E8002E772093E800CBCF81918093F10086
:10327000615071092F5F3F4FE7CF80912B02882368
:1032800041F0853041F08091E80083FFBECF81E0BE
:10329000089582E0089583E00895FC018091320250
:1032A0009091330286179707A0F06115710529F4F4
:1032B0008091E8008E778093E80090E061157105B9
:1032C00051F4911108C08091E80082FF35C080E080
:1032D0000895BC01F2CF80912B028823C9F185307B
:1032E000C9F18091E80083FD31C08091E80082FD42
:1032F000EACF8091E80080FFE1CF8091F300209138
:10330000F200382F6115710519F02830310558F099
:1033100091E02830310509F090E08091E8008E7747
:103320008093E800CBCF84918093F1003196615077
:1033300071092F5F3F4FE6CF80912B02882341F028
:10334000853041F08091E80083FFBDCF81E0089592
:1033500082E0089583E00895982F973028F08F70C9
:103360008093E90081E008959093E900242F762F5F
:1033700050E0981731F07091EC002091ED005091E1
:10338000F00021FD02C09F5FE8CF3091EB003E7F4F
:103390003093EB003091ED003D7F3093ED003091A4
:1033A000EB0031603093EB007093EC002093ED0064
:1033B0005093F0002091EE0027FDE5CF80E00895C6
:1033C00080912C0287FF13C08091E80082FF06C025
:1033D0008091E8008B778093E80004C080912B02F5
:1033E0008111F2CF089580912B028823D9F3809127
:1033F000E80080FFF8CF8091E8008E77ECCF209135
:10340000E4003091E50095E6A9012091EC00822FBF
:10341000817020FF06C08091E80080FF06C080E038
:1034200008952091E80022FD1AC080912B02882384
:1034300089F0853089F08091EB0085FD0FC02091E7
:10344000E4003091E50042175307F9F29150E1F69C
:1034500084E0089582E0089583E0089581E008956E
:1034600067D06ED0E0EEF0E0808181608083E8ED8F
:10347000F0E080818F77808319BCA7EDB0E08C915C
:103480008E7F8C9380818F7E808310922A02089594
:103490000F931F93CF93DF934BD052D0C8EDD0E062
:1034A00088818F77888388818068888388818F7DF1
:1034B000888319BC10922B021092270210922902C5
:1034C0001092280200EE10E0F80180818B7F80834B
:1034D00088818160888342E060E080E03DDFE1EE4A
:1034E000F0E080818E7F8083E2EEF0E08081816079
:1034F0008083808188608083F80180818E7F8083D3
:10350000888180618883DF91CF911F910F91089509
:10351000E8EDF0E080818F7E8083E7EDF0E0808150
:103520008160808384E082BF81E080932A02B0CFF3
:10353000E8EDF0E080818E7F80831092E2000895B4
:103540001092DA001092E10008951F920F920FB6C8
:103550000F9211242F933F934F935F936F937F9319
:103560008F939F93AF93BF93EF93FF938091E1006D
:1035700082FF0AC08091E20082FF06C08091E100D4
:103580008B7F8093E1002DD28091DA0080FF18C0FC
:103590008091D80080FF14C08091DA008E7F8093E4
:1035A000DA008091D90080FF91C080E189BD82E17D
:1035B00089BD09B400FEFDCF81E080932B0247DC7A
:1035C0008091E10080FF18C08091E20080FF14C06C
:1035D0008091E2008E7F8093E2008091E200806122
:1035E0008093E2008091D80080628093D80019BC5B
:1035F00085E080932B023DDC8091E10084FF2AC0AE
:103600008091E20084FF26C080E189BD82E189BD0E
:1036100089B5982F917080FFFBCF8091D8008F7D66
:103620008093D8008091E1008F7E8093E1008091AB
:10363000E2008F7E8093E2008091E20081608093BF
:10364000E20080912702882309F445C084E080933A
:103650002B0216DC8091E10083FF27C08091E200FD
:1036600083FF23C08091E100877F8093E10082E0A7
:1036700080932B02109227028091E1008E7F80932D
:10368000E1008091E2008E7F8093E2008091E20071
:1036900080618093E20042E060E080E05DDE809146
:1036A000F00088608093F000E1DBFF91EF91BF9123
:1036B000AF919F918F917F916F915F914F913F91CA
:1036C0002F910F900FBE0F901F90189519BC10925C
:1036D0002B02C9DB75CF8091E30087FD93E09093C7
:1036E0002B02B7CF1F920F920FB60F9211242F9378
:1036F0003F934F935F936F937F938F939F93AF937A
:10370000BF93CF93DF93EF93FF93D091E900DF70E6
:103710008091EC00C82FC17080FDC0E81092E900D4
:103720008091F000877F8093F00078941ED01092F3
:10373000E9008091F00088608093F000CD2BCF707D
:10374000C093E900FF91EF91DF91CF91BF91AF91CD
:103750009F918F917F916F915F914F913F912F91A9
:103760000F900FBE0F901F901895AAE2B0E0EAEB01
:10377000FBE178C18CE292E02091F100FC01219301
:10378000CF01F2E084339F07B9F790DB8091E80026
:1037900083FF16C180912C0290912D029A3008F07F
:1037A0000FC1E92FF0E0EE51F24E47C1803899F099
:1037B000823809F005C1809130028F70873008F09F
:1037C000FFC08093E9008091EB0085FB882780F99A
:1037D0001092E90006C0809128029091290291116F
:1037E00082609091E800977F9093E8008093F100C9
:1037F0001092F1008091E8008E77DFC0882309F4F1
:10380000CDC0823009F0DCC080912E028111D0C081
:10381000809130028F702FEF280F263008F0D0C033
:103820008093E9002091EB0020FFC2C0933031F477
:103830008091EB0080628093EB00BAC09091EB0026
:1038400090619093EB0021E030E001C0220F8A9557
:10385000EAF72093EA001092EA008091EB0088607A
:10386000EACF8111ADC010912E021F778091E30045
:103870008078812B8093E3008091E800877F80939C
:10388000E8009EDD8091E80080FFFCCF8091E3009E
:1038900080688093E30082E0111183E080932B0223
:1038A0008FC08058823008F08BC080912E0290919A
:1038B0002F028C3D23E0920799F583E08A838AE208
:1038C00089834FB7F894DE01139620E03EE051E281
:1038D000E32FF0E050935700E49120FF03C0E295FE
:1038E000EF703F5FEF708E2F90E0EA30B8F0C79630
:1038F0008D939D932F5F243159F74FBF8091E8003E
:10390000877F8093E8006AE270E0CE01019667DC71
:103910008091E8008B778093E80052C0C096E8CF92
:103920006091300270913102AE014F5F5F4FA8DBB2
:10393000BC01892B09F444C09091E800977F9093D3
:10394000E80089819A81A9DCE3CF8038C9F58091AC
:10395000E800877F8093E800809127028093F10040
:1039600049CF81112DC090912E02923048F580915F
:10397000E800877F8093E8009093270221DD809103
:103980002702882311F084E005C08091E30087FDC1
:10399000FACF81E080932B027CDA12C080912E0254
:1039A000813071F481E0933009F080E08093290246
:1039B0001092E9008091E800877F8093E80000DDA5
:1039C0008091E80083FF0AC08091E800877F8093A0
:1039D000E8008091EB0080628093EB00AA96E3E020
:1039E0005DC00895CF9380912B02882399F0C091F8
:1039F000E900CF709091EC00892F817090FD80E8F4
:103A0000C82B1092E9008091E80083FDAEDECF70F4
:103A1000C093E900CF91089523DD10922B02089501
:103A2000E8EDF0E08081806180838AE18A95F1F79A
:103A300000C08091D90081700895EE0FFF1F05909E
:103A4000F491E02D09942F923F924F925F926F92E2
:103A50007F928F929F92AF92BF92CF92DF92EF921E
:103A6000FF920F931F93CF93DF93CDB7DEB7CA1B9F
:103A7000DB0B0FB6F894DEBF0FBECDBF09942A88CA
:103A8000398848885F846E847D848C849B84AA8472
:103A9000B984C884DF80EE80FD800C811B81AA81FF
:103AA000B981CE0FD11D0FB6F894DEBF0FBECDBFCA
:103AB000ED010895FB01DC0104C08D910190801996
:103AC00021F441505040C8F7881B990B0895FB0121
:103AD000DC0102C001900D9241505040D8F708958A
:103AE000F999FECF92BD81BDF89A992780B50895C6
:103AF000A8E1B0E042E050E020C0262FF999FECFC7
:103B000092BD81BDF89A019700B4021639F01FBA30
:103B100020BD0FB6F894FA9AF99A0FBE089503964D
:103B2000272FECDFEADF252FE9DF242FE7CF0196EF
:103B3000272FE4DFE2CFDC01CB01FC01F999FECFB6
:103B400006C0F2BDE1BDF89A319600B40D92415025
:103B50005040B8F70895F894FFCFE703E7031D043A
:103B60001D040F040F040F040F047604DF04EB049C
:103B7000EB044312B3124B12151219124F121D12FD
:103B800053125F122912AC122D12631231126712F6
:103B90008F1235126B1296123B127112791221128A
:103BA000571225125B123F12751285129F12AA122C
:103BB0000F124712BA124113471331133B134D131F
:103BC00053135913D61BFE1BE01CFE1BE01C311CBB
:083BD000511CE01CA51CB11CF6
:103BD800B401010000000100000000000000050120
:103BE800000000040600000000000000000100447E
:103BF800141317EE16EF16ED16F5F6F731333236C5
:083C0800946697C634DC01004C
:00000001FF
